{
  "contractName": "Crowdsale",
  "abi": [
    {
      "constant": true,
      "inputs": [],
      "name": "rate",
      "outputs": [
        {
          "name": "",
          "type": "uint256"
        }
      ],
      "payable": false,
      "stateMutability": "view",
      "type": "function"
    },
    {
      "constant": true,
      "inputs": [],
      "name": "endTime",
      "outputs": [
        {
          "name": "",
          "type": "uint256"
        }
      ],
      "payable": false,
      "stateMutability": "view",
      "type": "function"
    },
    {
      "constant": true,
      "inputs": [],
      "name": "weiRaised",
      "outputs": [
        {
          "name": "",
          "type": "uint256"
        }
      ],
      "payable": false,
      "stateMutability": "view",
      "type": "function"
    },
    {
      "constant": true,
      "inputs": [],
      "name": "startTime",
      "outputs": [
        {
          "name": "",
          "type": "uint256"
        }
      ],
      "payable": false,
      "stateMutability": "view",
      "type": "function"
    },
    {
      "constant": true,
      "inputs": [],
      "name": "owner",
      "outputs": [
        {
          "name": "",
          "type": "address"
        }
      ],
      "payable": false,
      "stateMutability": "view",
      "type": "function"
    },
    {
      "constant": true,
      "inputs": [],
      "name": "queue",
      "outputs": [
        {
          "name": "",
          "type": "address"
        }
      ],
      "payable": false,
      "stateMutability": "view",
      "type": "function"
    },
    {
      "constant": false,
      "inputs": [
        {
          "name": "buyerAddress",
          "type": "address"
        }
      ],
      "name": "buyTokens",
      "outputs": [],
      "payable": true,
      "stateMutability": "payable",
      "type": "function"
    },
    {
      "constant": true,
      "inputs": [],
      "name": "hasEnded",
      "outputs": [
        {
          "name": "",
          "type": "bool"
        }
      ],
      "payable": false,
      "stateMutability": "view",
      "type": "function"
    },
    {
      "constant": true,
      "inputs": [],
      "name": "token",
      "outputs": [
        {
          "name": "",
          "type": "address"
        }
      ],
      "payable": false,
      "stateMutability": "view",
      "type": "function"
    },
    {
      "inputs": [
        {
          "name": "_startTime",
          "type": "uint256"
        },
        {
          "name": "_endTime",
          "type": "uint256"
        },
        {
          "name": "_rate",
          "type": "uint256"
        },
        {
          "name": "_owner",
          "type": "address"
        },
        {
          "name": "maxTime",
          "type": "uint256"
        }
      ],
      "payable": false,
      "stateMutability": "nonpayable",
      "type": "constructor"
    },
    {
      "payable": true,
      "stateMutability": "payable",
      "type": "fallback"
    },
    {
      "anonymous": false,
      "inputs": [
        {
          "indexed": true,
          "name": "purchaser",
          "type": "address"
        },
        {
          "indexed": true,
          "name": "sender",
          "type": "address"
        },
        {
          "indexed": false,
          "name": "value",
          "type": "uint256"
        },
        {
          "indexed": false,
          "name": "amount",
          "type": "uint256"
        }
      ],
      "name": "TokenPurchase",
      "type": "event"
    }
  ],
  "bytecode": "0x6060604052341561000f57600080fd5b60405160a080611a1f833981016040528080519190602001805191906020018051919060200180519190602001805160068054600160a060020a031916600160a060020a03861617905591503390506000804388101561006e57600080fd5b8787101561007b57600080fd5b6000861161008857600080fd5b600654600160a060020a03848116911614156100a357600080fd5b429150836100af610179565b908152602001604051809103906000f08015156100cb57600080fd5b60058054600160a060020a031916600160a060020a0392909216919091179055610102838264010000000061013b81026103b91704565b60048054600160a060020a031916600160a060020a03929092169190911790555050506000949094555060019190915560025550610199565b60008183610147610189565b918252600160a060020a0316602082015260409081019051809103906000f080151561017257600080fd5b9392505050565b60405161043b80610ddc83390190565b6040516108088061121783390190565b610c34806101a86000396000f300606060405236156100965763ffffffff7c01000000000000000000000000000000000000000000000000000000006000350416632c4e722e81146100a15780633197cbb6146100c65780634042b66f146100d957806378e97925146100ec5780638da5cb5b146100ff578063e10d29ee1461012e578063ec8ac4d814610141578063ecb70fb714610155578063fc0c546a1461017c575b61009f3361018f565b005b34156100ac57600080fd5b6100b46102cd565b60405190815260200160405180910390f35b34156100d157600080fd5b6100b46102d3565b34156100e457600080fd5b6100b46102d9565b34156100f757600080fd5b6100b46102df565b341561010a57600080fd5b6101126102e5565b604051600160a060020a03909116815260200160405180910390f35b341561013957600080fd5b6101126102f4565b61009f600160a060020a036004351661018f565b341561016057600080fd5b610168610303565b604051901515815260200160405180910390f35b341561018757600080fd5b61011261030b565b6006546000908190600160a060020a03848116911614156101af57600080fd5b6101b761031a565b15156101c257600080fd5b6002543492506101d990839063ffffffff61034916565b6003549091506101ef908363ffffffff61037416565b600355600454600160a060020a031663aa4f601284836040517c010000000000000000000000000000000000000000000000000000000063ffffffff8516028152600160a060020a0390921660048301526024820152604401600060405180830381600087803b151561026157600080fd5b6102c65a03f1151561027257600080fd5b5050600654600160a060020a03908116915084167f623b3804fa71d67900d064613da8f94b9617215ee90799290593e1745087ad18848460405191825260208201526040908101905180910390a36102c8610383565b505050565b60025481565b60015481565b60035481565b60005481565b600654600160a060020a031681565b600554600160a060020a031681565b600154421190565b600454600160a060020a031681565b60008060008054421015801561033257506001544211155b9150503415158180156103425750805b9250505090565b6000828202831580610365575082848281151561036257fe5b04145b151561036d57fe5b9392505050565b60008282018381101561036d57fe5b600654600160a060020a03163480156108fc0290604051600060405180830381858888f1935050505015156103b757600080fd5b565b600081836103c56103f0565b918252600160a060020a0316602082015260409081019051809103906000f080151561036d57600080fd5b604051610808806104018339019056006060604052341561000f57600080fd5b6040516040806108088339810160405280805191906020018051600160a060020a0316600090815260036020526040902083905550506002556107b1806100576000396000f300606060405236156100b75763ffffffff7c010000000000000000000000000000000000000000000000000000000060003504166306fdde0381146100bc578063095ea7b31461014657806318160ddd1461017c57806323b872dd146101a15780632b2c91b9146101c9578063313ce567146101eb57806370a08231146102145780637b47ec1a1461023357806395d89b41146100bc578063a9059cbb1461024b578063aa4f60121461026d578063dd62ed3e1461028f575b600080fd5b34156100c757600080fd5b6100cf6102b4565b60405160208082528190810183818151815260200191508051906020019080838360005b8381101561010b5780820151838201526020016100f3565b50505050905090810190601f1680156101385780820380516001836020036101000a031916815260200191505b509250505060405180910390f35b341561015157600080fd5b610168600160a060020a03600435166024356102eb565b604051901515815260200160405180910390f35b341561018757600080fd5b61018f610358565b60405190815260200160405180910390f35b34156101ac57600080fd5b610168600160a060020a036004358116906024351660443561035e565b34156101d457600080fd5b610168600160a060020a03600435166024356104a9565b34156101f657600080fd5b6101fe610532565b60405160ff909116815260200160405180910390f35b341561021f57600080fd5b61018f600160a060020a0360043516610537565b341561023e57600080fd5b610249600435610552565b005b341561025657600080fd5b610168600160a060020a03600435166024356105dd565b341561027857600080fd5b610249600160a060020a03600435166024356106c5565b341561029a57600080fd5b61018f600160a060020a0360043581169060243516610732565b60408051908101604052600381527f4241420000000000000000000000000000000000000000000000000000000000602082015281565b600160a060020a03338116600081815260046020908152604080832094871680845294909152808220859055909291907f8c5be1e5ebec7d5bd14f71427d1e84f3dd0314c0f7b2291e5b200ac8c7c3b9259085905190815260200160405180910390a35060015b92915050565b60025481565b600160a060020a0380841660008181526004602090815260408083203390951683529381528382205492825260039052918220548390108061039f57508281105b156103ad57600091506104a1565b600160a060020a0385166000908152600360205260409020546103d6908463ffffffff61075d16565b600160a060020a0386166000908152600360205260409020556103ff818463ffffffff61075d16565b600160a060020a0380871660009081526004602090815260408083203385168452825280832094909455918716815260039091522054610445908463ffffffff61076f16565b600160a060020a03808616600081815260036020526040908190209390935591908716907fddf252ad1be2c89b69c2b068fc378daa952ba7f163c4a11628f55a4df523b3ef9086905190815260200160405180910390a3600191505b509392505050565b60015460009033600160a060020a03908116911614156104c857600080fd5b600160a060020a0380841660008181526004602090815260408083203390951680845294909152908190208590557f8c5be1e5ebec7d5bd14f71427d1e84f3dd0314c0f7b2291e5b200ac8c7c3b9259085905190815260200160405180910390a350600192915050565b601281565b600160a060020a031660009081526003602052604090205490565b60015433600160a060020a039081169116141561056e57600080fd5b600160a060020a0333166000908152600360205260409020548190106105da57600280548290039055600160a060020a0333166000908152600360205260409020546105c0908263ffffffff61075d16565b600160a060020a0333166000908152600360205260409020555b50565b600160a060020a0333166000908152600360205260408120548290101561060657506000610352565b600160a060020a03331660009081526003602052604090205461062f908363ffffffff61075d16565b600160a060020a033381166000908152600360205260408082209390935590851681522054610664908363ffffffff61076f16565b600160a060020a0380851660008181526003602052604090819020939093559133909116907fddf252ad1be2c89b69c2b068fc378daa952ba7f163c4a11628f55a4df523b3ef9085905190815260200160405180910390a350600192915050565b60015433600160a060020a03908116911614156106e157600080fd5b6002805482019055600160a060020a038216600090815260036020526040902054610712908263ffffffff61076f16565b600160a060020a0390921660009081526003602052604090209190915550565b600160a060020a03918216600090815260046020908152604080832093909416825291909152205490565b60008282111561076957fe5b50900390565b60008282018381101561077e57fe5b93925050505600a165627a7a72305820bdefe911f613c6a6b52d4c4cfd5d67b9f87c4969c4a43772e9a7048e0b4382780029a165627a7a72305820863b00cd2172331414f49d49a10fc63f382970ccc8f977c2670cea9b42619edb002960606040526000805460ff19166005179055341561001c57600080fd5b60405160208061043b8339810160405280805160035550506103f8806100436000396000f300606060405236156100805763ffffffff7c01000000000000000000000000000000000000000000000000000000006000350416631e22314381146100855780633e3c9eae146100b45780638f807f6b146100d9578063957908d1146100fa578063ad7d59fc1461010d578063e0c6190d14610134578063f2a75fe414610147575b600080fd5b341561009057600080fd5b61009861015a565b604051600160a060020a03909116815260200160405180910390f35b34156100bf57600080fd5b6100c7610194565b60405190815260200160405180910390f35b34156100e457600080fd5b6100f8600160a060020a036004351661019a565b005b341561010557600080fd5b6100f861021a565b341561011857600080fd5b6101206102d3565b604051901515815260200160405180910390f35b341561013f57600080fd5b6100f8610329565b341561015257600080fd5b61012061036b565b600061016461036b565b15156101915760018054600090811061017957fe5b600091825260209091200154600160a060020a031690505b90565b60015490565b60056101a4610194565b10156101ee57600180548082016101bb8382610389565b506000918252602090912001805473ffffffffffffffffffffffffffffffffffffffff1916600160a060020a0383161790555b6101f66102d3565b1561021757600160a060020a03811660009081526002602052604090204390555b50565b600160005b60005460001960ff91821601168210156102ad57600180548390811061024157fe5b60009182526020909120015460018054600160a060020a0390921691600019850190811061026b57fe5b6000918252602090912001805473ffffffffffffffffffffffffffffffffffffffff1916600160a060020a03929092169190911790556001919091019061021f565b6102b561015a565b600160a060020a031660009081526002602052604090204390555050565b60008060005460ff168110156103255733600160a060020a03166001828154811015156102fc57fe5b600091825260209091200154600160a060020a031614156103205760019150610325565b600091505b5090565b6003546002600061033861015a565b600160a060020a0316600160a060020a0316815260200190815260200160002054430311156103695761036961021a565b565b6000610375610194565b151561038357506001610191565b50600090565b8154818355818115116103ad576000838152602090206103ad9181019083016103b2565b505050565b61019191905b8082111561032557600081556001016103b85600a165627a7a72305820e66a318389cd2c255fa9128810c889299fbee015d3a63ae0877a7cf3a3e517a500296060604052341561000f57600080fd5b6040516040806108088339810160405280805191906020018051600160a060020a0316600090815260036020526040902083905550506002556107b1806100576000396000f300606060405236156100b75763ffffffff7c010000000000000000000000000000000000000000000000000000000060003504166306fdde0381146100bc578063095ea7b31461014657806318160ddd1461017c57806323b872dd146101a15780632b2c91b9146101c9578063313ce567146101eb57806370a08231146102145780637b47ec1a1461023357806395d89b41146100bc578063a9059cbb1461024b578063aa4f60121461026d578063dd62ed3e1461028f575b600080fd5b34156100c757600080fd5b6100cf6102b4565b60405160208082528190810183818151815260200191508051906020019080838360005b8381101561010b5780820151838201526020016100f3565b50505050905090810190601f1680156101385780820380516001836020036101000a031916815260200191505b509250505060405180910390f35b341561015157600080fd5b610168600160a060020a03600435166024356102eb565b604051901515815260200160405180910390f35b341561018757600080fd5b61018f610358565b60405190815260200160405180910390f35b34156101ac57600080fd5b610168600160a060020a036004358116906024351660443561035e565b34156101d457600080fd5b610168600160a060020a03600435166024356104a9565b34156101f657600080fd5b6101fe610532565b60405160ff909116815260200160405180910390f35b341561021f57600080fd5b61018f600160a060020a0360043516610537565b341561023e57600080fd5b610249600435610552565b005b341561025657600080fd5b610168600160a060020a03600435166024356105dd565b341561027857600080fd5b610249600160a060020a03600435166024356106c5565b341561029a57600080fd5b61018f600160a060020a0360043581169060243516610732565b60408051908101604052600381527f4241420000000000000000000000000000000000000000000000000000000000602082015281565b600160a060020a03338116600081815260046020908152604080832094871680845294909152808220859055909291907f8c5be1e5ebec7d5bd14f71427d1e84f3dd0314c0f7b2291e5b200ac8c7c3b9259085905190815260200160405180910390a35060015b92915050565b60025481565b600160a060020a0380841660008181526004602090815260408083203390951683529381528382205492825260039052918220548390108061039f57508281105b156103ad57600091506104a1565b600160a060020a0385166000908152600360205260409020546103d6908463ffffffff61075d16565b600160a060020a0386166000908152600360205260409020556103ff818463ffffffff61075d16565b600160a060020a0380871660009081526004602090815260408083203385168452825280832094909455918716815260039091522054610445908463ffffffff61076f16565b600160a060020a03808616600081815260036020526040908190209390935591908716907fddf252ad1be2c89b69c2b068fc378daa952ba7f163c4a11628f55a4df523b3ef9086905190815260200160405180910390a3600191505b509392505050565b60015460009033600160a060020a03908116911614156104c857600080fd5b600160a060020a0380841660008181526004602090815260408083203390951680845294909152908190208590557f8c5be1e5ebec7d5bd14f71427d1e84f3dd0314c0f7b2291e5b200ac8c7c3b9259085905190815260200160405180910390a350600192915050565b601281565b600160a060020a031660009081526003602052604090205490565b60015433600160a060020a039081169116141561056e57600080fd5b600160a060020a0333166000908152600360205260409020548190106105da57600280548290039055600160a060020a0333166000908152600360205260409020546105c0908263ffffffff61075d16565b600160a060020a0333166000908152600360205260409020555b50565b600160a060020a0333166000908152600360205260408120548290101561060657506000610352565b600160a060020a03331660009081526003602052604090205461062f908363ffffffff61075d16565b600160a060020a033381166000908152600360205260408082209390935590851681522054610664908363ffffffff61076f16565b600160a060020a0380851660008181526003602052604090819020939093559133909116907fddf252ad1be2c89b69c2b068fc378daa952ba7f163c4a11628f55a4df523b3ef9085905190815260200160405180910390a350600192915050565b60015433600160a060020a03908116911614156106e157600080fd5b6002805482019055600160a060020a038216600090815260036020526040902054610712908263ffffffff61076f16565b600160a060020a0390921660009081526003602052604090209190915550565b600160a060020a03918216600090815260046020908152604080832093909416825291909152205490565b60008282111561076957fe5b50900390565b60008282018381101561077e57fe5b93925050505600a165627a7a72305820bdefe911f613c6a6b52d4c4cfd5d67b9f87c4969c4a43772e9a7048e0b4382780029",
  "source": "pragma solidity ^0.4.11;\n\nimport './utils/SafeMath.sol';\nimport './Token.sol';\nimport './Queue.sol';\n\n/**\n * @title Crowdsale\n * @dev Crowdsale is a base contract for managing a token crowdsale.\n * Crowdsales have a start and end timestamps, where investors can make\n * token purchases and the crowdsale will assign them tokens based\n * on a token per ETH rate. Funds collected are forwarded to a wallet\n * as they arrive.\n */\ncontract Crowdsale {\n  using SafeMath for uint256;\n\n  // The token being sold\n\n  // start and end timestamps where investments are allowed (both inclusive)\n  uint256 public startTime;\n  uint256 public endTime;\n\n  // address where funds are collected\n  // address public owner;\n\n  // how many token units a buyer gets per wei\n  uint256 public rate;\n\n  // amount of raised money in wei\n  uint256 public weiRaised;\n\n  Token public token;\n  Queue public queue;\n\n  address public owner;\n\n  /**\n   * event for token purchase logging\n   * @param purchaser who paid for the tokens\n   * @param sender who got the tokens\n   * @param value weis paid for purchase\n   * @param amount amount of tokens purchased\n   */\n  event TokenPurchase(address indexed purchaser, address indexed sender, uint256 value, uint256 amount);\n\n  function Crowdsale(uint256 _startTime, uint256 _endTime, uint256 _rate, address _owner, uint maxTime) {\n\n  \t// mapping(address => uint256) buyerAddresses;\n\n  \taddress buyerAddress = msg.sender;\n  \towner = _owner;\n  \tuint256 currentTime;\n    uint256 totalSupply;\n\n    require(_startTime >= block.number);\n    require(_endTime >= _startTime);\n    require(_rate > 0);\n    require(buyerAddress != owner);\n\n    currentTime = now;\n\n\tqueue = new Queue(maxTime);\n\n    token = createTokenContract(buyerAddress, totalSupply);\n    startTime = _startTime;\n    endTime = _endTime;\n    rate = _rate;\n    // wallet = _wallet;\n\n\n  }\n\n  // creates the token to be sold.\n  // override this method to have crowdsale of a specific mintable token.\n  function createTokenContract(address buyerAddress, uint256 totalSupply) internal returns (Token) {\n    return new Token(totalSupply, buyerAddress);\n  }\n\n  // fallback function can be used to buy tokens\n  function () payable {\n    buyTokens(msg.sender);\n  }\n\n  // low level token purchase function\n  function buyTokens(address buyerAddress) public payable {\n    require(buyerAddress != owner);\n    require(validPurchase());\n\n    uint256 weiAmount = msg.value;\n\n    // calculate token amount to be created\n    uint256 tokens = weiAmount.mul(rate);\n\n    // update state\n    weiRaised = weiRaised.add(weiAmount);\n\n    token.addSupply(buyerAddress, tokens);\n    TokenPurchase(buyerAddress, owner, weiAmount, tokens);\n\n    forwardFunds();\n  }\n\n  // send ether to the fund collection wallet\n  // override to create custom fund forwarding mechanisms\n  function forwardFunds() internal {\n    owner.transfer(msg.value);\n  }\n\n  // @return true if the transaction can buy tokens\n  function validPurchase() internal constant returns (bool) {\n    bool withinPeriod = now >= startTime && now <= endTime;\n    bool nonZeroPurchase = msg.value != 0;\n    return withinPeriod && nonZeroPurchase;\n  }\n\n  // @return true if crowdsale event has ended\n  function hasEnded() public constant returns (bool) {\n    return now > endTime;\n  }\n\n\n}\n",
  "sourcePath": "/Users/cmalla/Projects/my/dev_decal/Midterm/contracts/Crowdsale.sol",
  "schemaVersion": "1.0.0",
  "updatedAt": "2017-10-30T05:20:39.190Z"
}