{
  "contractName": "Queue",
  "abi": [
    {
      "constant": true,
      "inputs": [],
      "name": "getFirst",
      "outputs": [
        {
          "name": "",
          "type": "address"
        }
      ],
      "payable": false,
      "stateMutability": "view",
      "type": "function"
    },
    {
      "constant": true,
      "inputs": [],
      "name": "qsize",
      "outputs": [
        {
          "name": "",
          "type": "uint256"
        }
      ],
      "payable": false,
      "stateMutability": "view",
      "type": "function"
    },
    {
      "constant": false,
      "inputs": [
        {
          "name": "addr",
          "type": "address"
        }
      ],
      "name": "enqueue",
      "outputs": [],
      "payable": false,
      "stateMutability": "nonpayable",
      "type": "function"
    },
    {
      "constant": false,
      "inputs": [],
      "name": "dequeue",
      "outputs": [],
      "payable": false,
      "stateMutability": "nonpayable",
      "type": "function"
    },
    {
      "constant": true,
      "inputs": [],
      "name": "checkPlace",
      "outputs": [
        {
          "name": "",
          "type": "bool"
        }
      ],
      "payable": false,
      "stateMutability": "view",
      "type": "function"
    },
    {
      "constant": false,
      "inputs": [],
      "name": "checkTime",
      "outputs": [],
      "payable": false,
      "stateMutability": "nonpayable",
      "type": "function"
    },
    {
      "constant": true,
      "inputs": [],
      "name": "empty",
      "outputs": [
        {
          "name": "",
          "type": "bool"
        }
      ],
      "payable": false,
      "stateMutability": "view",
      "type": "function"
    },
    {
      "inputs": [
        {
          "name": "_time",
          "type": "uint256"
        }
      ],
      "payable": false,
      "stateMutability": "nonpayable",
      "type": "constructor"
    },
    {
      "anonymous": false,
      "inputs": [
        {
          "indexed": false,
          "name": "booted",
          "type": "address"
        }
      ],
      "name": "Boot",
      "type": "event"
    }
  ],
  "bytecode": "0x60606040526000805460ff19166005179055341561001c57600080fd5b60405160208061043b8339810160405280805160035550506103f8806100436000396000f300606060405236156100805763ffffffff7c01000000000000000000000000000000000000000000000000000000006000350416631e22314381146100855780633e3c9eae146100b45780638f807f6b146100d9578063957908d1146100fa578063ad7d59fc1461010d578063e0c6190d14610134578063f2a75fe414610147575b600080fd5b341561009057600080fd5b61009861015a565b604051600160a060020a03909116815260200160405180910390f35b34156100bf57600080fd5b6100c7610194565b60405190815260200160405180910390f35b34156100e457600080fd5b6100f8600160a060020a036004351661019a565b005b341561010557600080fd5b6100f861021a565b341561011857600080fd5b6101206102d3565b604051901515815260200160405180910390f35b341561013f57600080fd5b6100f8610329565b341561015257600080fd5b61012061036b565b600061016461036b565b15156101915760018054600090811061017957fe5b600091825260209091200154600160a060020a031690505b90565b60015490565b60056101a4610194565b10156101ee57600180548082016101bb8382610389565b506000918252602090912001805473ffffffffffffffffffffffffffffffffffffffff1916600160a060020a0383161790555b6101f66102d3565b1561021757600160a060020a03811660009081526002602052604090204390555b50565b600160005b60005460001960ff91821601168210156102ad57600180548390811061024157fe5b60009182526020909120015460018054600160a060020a0390921691600019850190811061026b57fe5b6000918252602090912001805473ffffffffffffffffffffffffffffffffffffffff1916600160a060020a03929092169190911790556001919091019061021f565b6102b561015a565b600160a060020a031660009081526002602052604090204390555050565b60008060005460ff168110156103255733600160a060020a03166001828154811015156102fc57fe5b600091825260209091200154600160a060020a031614156103205760019150610325565b600091505b5090565b6003546002600061033861015a565b600160a060020a0316600160a060020a0316815260200190815260200160002054430311156103695761036961021a565b565b6000610375610194565b151561038357506001610191565b50600090565b8154818355818115116103ad576000838152602090206103ad9181019083016103b2565b505050565b61019191905b8082111561032557600081556001016103b85600a165627a7a72305820e66a318389cd2c255fa9128810c889299fbee015d3a63ae0877a7cf3a3e517a50029",
  "source": "pragma solidity ^0.4.15;\n\n/**\n * @title Queue\n * @dev Data structure contract used in `Crowdsale.sol`\n * Allows buyers to line up on a first-in-first-out basis\n * See this example: http://interactivepython.org/courselib/static/pythonds/BasicDS/ImplementingaQueueinPython.html\n */\n\ncontract Queue {\n\t/* State variables */\n\tuint8 size = 5;\n\t// YOUR CODE HERE\n\taddress[] list;\n\tmapping(address => uint) beginBlockNum;\n\t/* number of blocks within which you are allowed to participate */\n\tuint time;\n\t/* Add events */\n\tevent Boot(\n\t\taddress booted\n\t\t);\n\t/* Include an event to log an error?*/\n\n\t/* Add constructor */\n\t// YOUR CODE HERE\n\t/* Ideally, you would be allowed to submit a queue size */\n\tfunction Queue(uint _time) {\n\t\ttime = _time;\n\t}\n\n\t/* Returns the number of people waiting in line */\n\tfunction qsize() constant returns(uint) {\n\t\treturn list.length;\n\t}\n\n\t/* Returns whether the queue is empty or not */\n\tfunction empty() constant returns(bool) {\n\t\tif (qsize() == 0) {\n\t\t\treturn true;\n\t\t}\n\t\treturn false;\n\t}\n\n\t/* Returns the address of the person in the front of the queue */\n\tfunction getFirst() constant returns(address) {\n\t\tif (!empty()){\n\t\t\treturn list[0];\n\t\t}\n\t}\n\n\t/* Allows `msg.sender` to check their position in the queue\n\t   -1 indicates that they are not in the queue */\n\tfunction checkPlace() constant returns(bool) {\n\t\tfor (uint i = 0; i < size; i ++){\n\t\t\tif (list[i] == msg.sender){\n\t\t\t\treturn true;\n\t\t\t} else {\n\t\t\t\treturn false;\n\t\t\t}\n\t\t}\n\t\t\n\t}\n\n\t/* Allows anyone to expel the first person in line if their time\n\t * limit is up\n\t */\n\tfunction checkTime() {\n\t\tif ((block.number - beginBlockNum[getFirst()]) > time){\n\t\t\tdequeue();\n\t\t}\n\t}\n\n\t/* Removes the first person in line; either when their time is up or when\n\t * they are done with their purchase\n\t */\n\tfunction dequeue() {\n\t\tfor (uint i = 1; i < size-1; i ++) {\n\t\t\tlist[i-1] = list[i];\n\t\t}\n\t\taddress first = getFirst();\n\t\tbeginBlockNum[first] = block.number;\n\t}\n\n\t/* Places `addr` in the first empty position in the queue */\n\tfunction enqueue(address addr) {\n\t\tif (qsize() < 5){\n\t\t\tlist.push(addr);\n\t\t}\n\t\tif (checkPlace()){\n\t\t\tbeginBlockNum[addr] = block.number;\n\t\t}\n\t}\n}",
  "sourcePath": "/Users/cmalla/Projects/my/dev_decal/Midterm/contracts/Queue.sol",
  "schemaVersion": "1.0.0",
  "updatedAt": "2017-10-30T05:20:39.191Z"
}