{
  "contractName": "Token",
  "abi": [
    {
      "constant": true,
      "inputs": [],
      "name": "name",
      "outputs": [
        {
          "name": "",
          "type": "string"
        }
      ],
      "payable": false,
      "stateMutability": "view",
      "type": "function"
    },
    {
      "constant": false,
      "inputs": [
        {
          "name": "_spender",
          "type": "address"
        },
        {
          "name": "_value",
          "type": "uint256"
        }
      ],
      "name": "approve",
      "outputs": [
        {
          "name": "success",
          "type": "bool"
        }
      ],
      "payable": false,
      "stateMutability": "nonpayable",
      "type": "function"
    },
    {
      "constant": true,
      "inputs": [],
      "name": "totalSupply",
      "outputs": [
        {
          "name": "",
          "type": "uint256"
        }
      ],
      "payable": false,
      "stateMutability": "view",
      "type": "function"
    },
    {
      "constant": false,
      "inputs": [
        {
          "name": "_from",
          "type": "address"
        },
        {
          "name": "_to",
          "type": "address"
        },
        {
          "name": "_value",
          "type": "uint256"
        }
      ],
      "name": "transferFrom",
      "outputs": [
        {
          "name": "success",
          "type": "bool"
        }
      ],
      "payable": false,
      "stateMutability": "nonpayable",
      "type": "function"
    },
    {
      "constant": false,
      "inputs": [
        {
          "name": "_refundee",
          "type": "address"
        },
        {
          "name": "_value",
          "type": "uint256"
        }
      ],
      "name": "refundApprove",
      "outputs": [
        {
          "name": "success",
          "type": "bool"
        }
      ],
      "payable": false,
      "stateMutability": "nonpayable",
      "type": "function"
    },
    {
      "constant": true,
      "inputs": [],
      "name": "decimals",
      "outputs": [
        {
          "name": "",
          "type": "uint8"
        }
      ],
      "payable": false,
      "stateMutability": "view",
      "type": "function"
    },
    {
      "constant": true,
      "inputs": [
        {
          "name": "_owner",
          "type": "address"
        }
      ],
      "name": "balanceOf",
      "outputs": [
        {
          "name": "balance",
          "type": "uint256"
        }
      ],
      "payable": false,
      "stateMutability": "view",
      "type": "function"
    },
    {
      "constant": false,
      "inputs": [
        {
          "name": "_amount",
          "type": "uint256"
        }
      ],
      "name": "burnToken",
      "outputs": [],
      "payable": false,
      "stateMutability": "nonpayable",
      "type": "function"
    },
    {
      "constant": true,
      "inputs": [],
      "name": "symbol",
      "outputs": [
        {
          "name": "",
          "type": "string"
        }
      ],
      "payable": false,
      "stateMutability": "view",
      "type": "function"
    },
    {
      "constant": false,
      "inputs": [
        {
          "name": "_to",
          "type": "address"
        },
        {
          "name": "_value",
          "type": "uint256"
        }
      ],
      "name": "transfer",
      "outputs": [
        {
          "name": "success",
          "type": "bool"
        }
      ],
      "payable": false,
      "stateMutability": "nonpayable",
      "type": "function"
    },
    {
      "constant": false,
      "inputs": [
        {
          "name": "buyerAddress",
          "type": "address"
        },
        {
          "name": "_amount",
          "type": "uint256"
        }
      ],
      "name": "addSupply",
      "outputs": [],
      "payable": false,
      "stateMutability": "nonpayable",
      "type": "function"
    },
    {
      "constant": true,
      "inputs": [
        {
          "name": "_owner",
          "type": "address"
        },
        {
          "name": "_spender",
          "type": "address"
        }
      ],
      "name": "allowance",
      "outputs": [
        {
          "name": "remaining",
          "type": "uint256"
        }
      ],
      "payable": false,
      "stateMutability": "view",
      "type": "function"
    },
    {
      "inputs": [
        {
          "name": "_totalSupply",
          "type": "uint256"
        },
        {
          "name": "buyerAddress",
          "type": "address"
        }
      ],
      "payable": false,
      "stateMutability": "nonpayable",
      "type": "constructor"
    },
    {
      "anonymous": false,
      "inputs": [
        {
          "indexed": true,
          "name": "_from",
          "type": "address"
        },
        {
          "indexed": true,
          "name": "_to",
          "type": "address"
        },
        {
          "indexed": false,
          "name": "_value",
          "type": "uint256"
        }
      ],
      "name": "Transfer",
      "type": "event"
    },
    {
      "anonymous": false,
      "inputs": [
        {
          "indexed": true,
          "name": "_owner",
          "type": "address"
        },
        {
          "indexed": true,
          "name": "_spender",
          "type": "address"
        },
        {
          "indexed": false,
          "name": "_value",
          "type": "uint256"
        }
      ],
      "name": "Approval",
      "type": "event"
    }
  ],
  "bytecode": "0x6060604052341561000f57600080fd5b6040516040806108088339810160405280805191906020018051600160a060020a0316600090815260036020526040902083905550506002556107b1806100576000396000f300606060405236156100b75763ffffffff7c010000000000000000000000000000000000000000000000000000000060003504166306fdde0381146100bc578063095ea7b31461014657806318160ddd1461017c57806323b872dd146101a15780632b2c91b9146101c9578063313ce567146101eb57806370a08231146102145780637b47ec1a1461023357806395d89b41146100bc578063a9059cbb1461024b578063aa4f60121461026d578063dd62ed3e1461028f575b600080fd5b34156100c757600080fd5b6100cf6102b4565b60405160208082528190810183818151815260200191508051906020019080838360005b8381101561010b5780820151838201526020016100f3565b50505050905090810190601f1680156101385780820380516001836020036101000a031916815260200191505b509250505060405180910390f35b341561015157600080fd5b610168600160a060020a03600435166024356102eb565b604051901515815260200160405180910390f35b341561018757600080fd5b61018f610358565b60405190815260200160405180910390f35b34156101ac57600080fd5b610168600160a060020a036004358116906024351660443561035e565b34156101d457600080fd5b610168600160a060020a03600435166024356104a9565b34156101f657600080fd5b6101fe610532565b60405160ff909116815260200160405180910390f35b341561021f57600080fd5b61018f600160a060020a0360043516610537565b341561023e57600080fd5b610249600435610552565b005b341561025657600080fd5b610168600160a060020a03600435166024356105dd565b341561027857600080fd5b610249600160a060020a03600435166024356106c5565b341561029a57600080fd5b61018f600160a060020a0360043581169060243516610732565b60408051908101604052600381527f4241420000000000000000000000000000000000000000000000000000000000602082015281565b600160a060020a03338116600081815260046020908152604080832094871680845294909152808220859055909291907f8c5be1e5ebec7d5bd14f71427d1e84f3dd0314c0f7b2291e5b200ac8c7c3b9259085905190815260200160405180910390a35060015b92915050565b60025481565b600160a060020a0380841660008181526004602090815260408083203390951683529381528382205492825260039052918220548390108061039f57508281105b156103ad57600091506104a1565b600160a060020a0385166000908152600360205260409020546103d6908463ffffffff61075d16565b600160a060020a0386166000908152600360205260409020556103ff818463ffffffff61075d16565b600160a060020a0380871660009081526004602090815260408083203385168452825280832094909455918716815260039091522054610445908463ffffffff61076f16565b600160a060020a03808616600081815260036020526040908190209390935591908716907fddf252ad1be2c89b69c2b068fc378daa952ba7f163c4a11628f55a4df523b3ef9086905190815260200160405180910390a3600191505b509392505050565b60015460009033600160a060020a03908116911614156104c857600080fd5b600160a060020a0380841660008181526004602090815260408083203390951680845294909152908190208590557f8c5be1e5ebec7d5bd14f71427d1e84f3dd0314c0f7b2291e5b200ac8c7c3b9259085905190815260200160405180910390a350600192915050565b601281565b600160a060020a031660009081526003602052604090205490565b60015433600160a060020a039081169116141561056e57600080fd5b600160a060020a0333166000908152600360205260409020548190106105da57600280548290039055600160a060020a0333166000908152600360205260409020546105c0908263ffffffff61075d16565b600160a060020a0333166000908152600360205260409020555b50565b600160a060020a0333166000908152600360205260408120548290101561060657506000610352565b600160a060020a03331660009081526003602052604090205461062f908363ffffffff61075d16565b600160a060020a033381166000908152600360205260408082209390935590851681522054610664908363ffffffff61076f16565b600160a060020a0380851660008181526003602052604090819020939093559133909116907fddf252ad1be2c89b69c2b068fc378daa952ba7f163c4a11628f55a4df523b3ef9085905190815260200160405180910390a350600192915050565b60015433600160a060020a03908116911614156106e157600080fd5b6002805482019055600160a060020a038216600090815260036020526040902054610712908263ffffffff61076f16565b600160a060020a0390921660009081526003602052604090209190915550565b600160a060020a03918216600090815260046020908152604080832093909416825291909152205490565b60008282111561076957fe5b50900390565b60008282018381101561077e57fe5b93925050505600a165627a7a72305820bdefe911f613c6a6b52d4c4cfd5d67b9f87c4969c4a43772e9a7048e0b4382780029",
  "source": "pragma solidity ^0.4.15;\n\nimport './interfaces/ERC20Interface.sol';\nimport './utils/SafeMath.sol';\n\n/**\n * @title Token\n * @dev Contract that implements ERC20 token standard\n * Is deployed by `Crowdsale.sol`, keeps track of balances, etc.\n */\n\n contract Token is ERC20Interface {\n\n \tstring public constant name = \"BAB\";\n    string public constant symbol = \"BAB\";\n    uint8 public constant decimals = 18;  // 18 is the most common number of decimal places\n\n   \taddress owner;\n\n   \tuint256 public totalSupply;\n\n   \tmapping(address => uint256) balances;\n   \tmapping(address => mapping(address => uint256)) approved;\n\n   \tusing SafeMath for uint256;\n\n   \tmodifier isVerifiedBuyer() {\n     \t\trequire(msg.sender != owner);\n       \t_;\n     }\n\n   \tfunction Token(uint256 _totalSupply, address buyerAddress) public {\n   \t\t// address buyerAddress;\n   \t\t// address senderAddres;\n\n       \tbalances[buyerAddress] = _totalSupply;\n     \ttotalSupply = _totalSupply;\n     \t// queue.enqueue(buyerAddress);\n     }\n\n   \tfunction addSupply(address buyerAddress, uint256 _amount) isVerifiedBuyer() public {\n       \ttotalSupply += _amount;\n       \tbalances[buyerAddress] = balances[buyerAddress].add(_amount); \n     }\n\n     function burnToken(uint256 _amount) isVerifiedBuyer() public {\n       if (balances[msg.sender] >= _amount) {\n         totalSupply -= _amount;\n         balances[msg.sender] = balances[msg.sender].sub(_amount);\n       }\n     }\n\n \t\t/* @param _owner The address from which the balance will be retrieved\n       @return The balance */\n     function balanceOf(address _owner) constant public returns (uint256 balance) {\n     \t\treturn balances[_owner];\n     }\n\n   \t/* @notice send `_value` token to `_to` from `msg.sender`\n       @param _to The address of the recipient\n       @param _value The amount of token to be transferred\n       @return Whether the transfer was successful or not */\n     function transfer(address _to, uint256 _value) public returns (bool success) {\n       \tif (balances[msg.sender] < _value) {\n         \t\treturn false;\n         }\n         balances[msg.sender] = balances[msg.sender].sub(_value);\n       \tbalances[_to] = balances[_to].add(_value);\n       \tTransfer(msg.sender, _to, _value);\n       \treturn true;\n     }\n\n   \t  /* @notice send `_value` token to `_to` from `_from` on the condition it is approved by `_from`\n         @param _from The address of the sender\n         @param _to The address of the recipient\n         @param _value The amount of token to be transferred\n         @return Whether the transfer was successful or not */\n     function transferFrom(address _from, address _to, uint256 _value) public returns (bool success) {\n       \tuint256 allowed = approved[_from][msg.sender];\n\n       \tif (balances[_from] < _value || allowed < _value) {\n           \treturn false;\n         }\n       \tbalances[_from] = balances[_from].sub(_value);\n       \tapproved[_from][msg.sender] = allowed.sub(_value);\n  \t\t\t\tbalances[_to] = balances[_to].add(_value);\n       \tTransfer(_from, _to, _value);\n       \treturn true;\n     }\n\n     /*@notice `msg.sender` approves `_spender` to spend `_value` tokens\n       @param _spender The address of the account able to transfer the tokens\n       @param _value The amount of tokens to be approved for transfer\n       @return Whether the approval was successful or not */\n     function approve(address _spender, uint256 _value) public returns (bool success) {\n       \tapproved[msg.sender][_spender] = _value;\n       \tApproval(msg.sender, _spender, _value);\n       \treturn true;\n     }\n\n   \tfunction refundApprove(address _refundee, uint256 _value)  isVerifiedBuyer() public returns (bool success) {\n       \tapproved[_refundee][msg.sender] = _value;\n       \tApproval(_refundee, msg.sender, _value);\n       \treturn true;\n     }\n\n    /*@param _owner The address of the account owning tokens\n      @param _spender The address of the account able to transfer the tokens\n      @return Amount of remaining tokens allowed to spent */\n     function allowance(address _owner, address _spender) constant public returns (uint256 remaining) {\n       \treturn approved[_owner][_spender];\n     }\n\n     event Transfer(address indexed _from, address indexed _to, uint256 _value);\n     event Approval(address indexed _owner, address indexed _spender, uint256 _value);\n }\n",
  "sourcePath": "/Users/cmalla/Projects/my/dev_decal/Midterm/contracts/Token.sol",
  "schemaVersion": "1.0.0",
  "updatedAt": "2017-10-30T00:47:50.749Z"
}